{
  "_format": "hh-sol-artifact-1",
  "contractName": "SmartAccount",
  "sourceName": "contracts/SmartAccount.sol",
  "abi": [
    {
      "anonymous": false,
      "inputs": [
        {
          "indexed": false,
          "internalType": "uint8",
          "name": "version",
          "type": "uint8"
        }
      ],
      "name": "Initialized",
      "type": "event"
    },
    {
      "anonymous": false,
      "inputs": [
        {
          "indexed": false,
          "internalType": "uint256",
          "name": "amount",
          "type": "uint256"
        },
        {
          "indexed": false,
          "internalType": "uint256",
          "name": "when",
          "type": "uint256"
        }
      ],
      "name": "Withdrawal",
      "type": "event"
    },
    {
      "stateMutability": "payable",
      "type": "fallback"
    },
    {
      "inputs": [],
      "name": "betCounter",
      "outputs": [
        {
          "internalType": "uint256",
          "name": "",
          "type": "uint256"
        }
      ],
      "stateMutability": "view",
      "type": "function"
    },
    {
      "inputs": [
        {
          "internalType": "uint256",
          "name": "",
          "type": "uint256"
        }
      ],
      "name": "bets",
      "outputs": [
        {
          "internalType": "uint256",
          "name": "amount",
          "type": "uint256"
        },
        {
          "internalType": "enum SmartAccount.BetState",
          "name": "state",
          "type": "uint8"
        },
        {
          "internalType": "string",
          "name": "description",
          "type": "string"
        }
      ],
      "stateMutability": "view",
      "type": "function"
    },
    {
      "inputs": [],
      "name": "charity",
      "outputs": [
        {
          "internalType": "address payable",
          "name": "",
          "type": "address"
        }
      ],
      "stateMutability": "view",
      "type": "function"
    },
    {
      "inputs": [],
      "name": "checkingAmt",
      "outputs": [
        {
          "internalType": "uint256",
          "name": "",
          "type": "uint256"
        }
      ],
      "stateMutability": "view",
      "type": "function"
    },
    {
      "inputs": [
        {
          "internalType": "address payable",
          "name": "owner_",
          "type": "address"
        },
        {
          "internalType": "uint256",
          "name": "savingPercent_",
          "type": "uint256"
        },
        {
          "internalType": "address",
          "name": "sponsor_",
          "type": "address"
        },
        {
          "internalType": "address payable",
          "name": "charity_",
          "type": "address"
        }
      ],
      "name": "initialize",
      "outputs": [],
      "stateMutability": "nonpayable",
      "type": "function"
    },
    {
      "inputs": [],
      "name": "owner",
      "outputs": [
        {
          "internalType": "address payable",
          "name": "",
          "type": "address"
        }
      ],
      "stateMutability": "view",
      "type": "function"
    },
    {
      "inputs": [
        {
          "internalType": "uint256",
          "name": "amount",
          "type": "uint256"
        },
        {
          "internalType": "string",
          "name": "description",
          "type": "string"
        }
      ],
      "name": "placeBet",
      "outputs": [],
      "stateMutability": "nonpayable",
      "type": "function"
    },
    {
      "inputs": [
        {
          "internalType": "uint256",
          "name": "betIndex",
          "type": "uint256"
        },
        {
          "internalType": "enum SmartAccount.BetState",
          "name": "state",
          "type": "uint8"
        }
      ],
      "name": "reviewBet",
      "outputs": [],
      "stateMutability": "nonpayable",
      "type": "function"
    },
    {
      "inputs": [],
      "name": "savingPercent",
      "outputs": [
        {
          "internalType": "uint256",
          "name": "",
          "type": "uint256"
        }
      ],
      "stateMutability": "view",
      "type": "function"
    },
    {
      "inputs": [],
      "name": "savingsAmt",
      "outputs": [
        {
          "internalType": "uint256",
          "name": "",
          "type": "uint256"
        }
      ],
      "stateMutability": "view",
      "type": "function"
    },
    {
      "inputs": [],
      "name": "savingsLocked",
      "outputs": [
        {
          "internalType": "bool",
          "name": "",
          "type": "bool"
        }
      ],
      "stateMutability": "view",
      "type": "function"
    },
    {
      "inputs": [
        {
          "internalType": "bool",
          "name": "lock",
          "type": "bool"
        }
      ],
      "name": "setSavingsLock",
      "outputs": [],
      "stateMutability": "nonpayable",
      "type": "function"
    },
    {
      "inputs": [],
      "name": "sponsor",
      "outputs": [
        {
          "internalType": "address",
          "name": "",
          "type": "address"
        }
      ],
      "stateMutability": "view",
      "type": "function"
    },
    {
      "inputs": [
        {
          "internalType": "bool",
          "name": "checkingAccount",
          "type": "bool"
        },
        {
          "internalType": "uint256",
          "name": "amount",
          "type": "uint256"
        }
      ],
      "name": "withdraw",
      "outputs": [],
      "stateMutability": "nonpayable",
      "type": "function"
    },
    {
      "stateMutability": "payable",
      "type": "receive"
    }
  ],
  "bytecode": "0x6080604052600060065534801561001557600080fd5b50611f8e806100256000396000f3fe6080604052600436106100e15760003560e01c80638da5cb5b1161007f5780639ef5913a116100595780639ef5913a14610384578063a416f5ab146103af578063beb3a7e1146103da578063fe86abab1461040557610158565b80638da5cb5b14610305578063934aa02314610330578063984c04501461035b57610158565b80635e8af735116100bb5780635e8af7351461025d57806376bd8ab01461028657806377c93662146102af578063870a2617146102da57610158565b806310d6b422146101ca57806322af00fa146101f5578063358394d81461023457610158565b36610158576064600354346100f69190611302565b610100919061138b565b6005600082825461011191906113bc565b92505081905550606460035460646101299190611412565b346101349190611302565b61013e919061138b565b6004600082825461014f91906113bc565b92505081905550005b6064600354346101689190611302565b610172919061138b565b6005600082825461018391906113bc565b925050819055506064600354606461019b9190611412565b346101a69190611302565b6101b0919061138b565b600460008282546101c191906113bc565b92505081905550005b3480156101d657600080fd5b506101df61042e565b6040516101ec9190611455565b60405180910390f35b34801561020157600080fd5b5061021c600480360381019061021791906114a6565b610434565b60405161022b939291906115e3565b60405180910390f35b34801561024057600080fd5b5061025b600480360381019061025691906116bd565b6104f3565b005b34801561026957600080fd5b50610284600480360381019061027f9190611789565b6106f7565b005b34801561029257600080fd5b506102ad60048036038101906102a8919061180e565b610928565b005b3480156102bb57600080fd5b506102c4610cfd565b6040516102d1919061185d565b60405180910390f35b3480156102e657600080fd5b506102ef610d23565b6040516102fc9190611455565b60405180910390f35b34801561031157600080fd5b5061031a610d29565b6040516103279190611887565b60405180910390f35b34801561033c57600080fd5b50610345610d4f565b6040516103529190611887565b60405180910390f35b34801561036757600080fd5b50610382600480360381019061037d91906118da565b610d75565b005b34801561039057600080fd5b50610399611137565b6040516103a69190611455565b60405180910390f35b3480156103bb57600080fd5b506103c461113d565b6040516103d19190611455565b60405180910390f35b3480156103e657600080fd5b506103ef611143565b6040516103fc9190611929565b60405180910390f35b34801561041157600080fd5b5061042c60048036038101906104279190611944565b611156565b005b60045481565b60076020528060005260406000206000915090508060000154908060010160009054906101000a900460ff1690806002018054610470906119a0565b80601f016020809104026020016040519081016040528092919081815260200182805461049c906119a0565b80156104e95780601f106104be576101008083540402835291602001916104e9565b820191906000526020600020905b8154815290600101906020018083116104cc57829003601f168201915b5050505050905083565b60008060019054906101000a900460ff161590508080156105245750600160008054906101000a900460ff1660ff16105b80610551575061053330611203565b1580156105505750600160008054906101000a900460ff1660ff16145b5b610590576040517f08c379a000000000000000000000000000000000000000000000000000000000815260040161058790611a44565b60405180910390fd5b60016000806101000a81548160ff021916908360ff16021790555080156105cd576001600060016101000a81548160ff0219169083151502179055505b84600060026101000a81548173ffffffffffffffffffffffffffffffffffffffff021916908373ffffffffffffffffffffffffffffffffffffffff1602179055508360038190555082600260006101000a81548173ffffffffffffffffffffffffffffffffffffffff021916908373ffffffffffffffffffffffffffffffffffffffff16021790555081600160006101000a81548173ffffffffffffffffffffffffffffffffffffffff021916908373ffffffffffffffffffffffffffffffffffffffff16021790555080156106f05760008060016101000a81548160ff0219169083151502179055507f7f26b83ff96e1f2b6a682f133852f6798a09c465da95921460cefb384740249860016040516106e79190611ab6565b60405180910390a15b5050505050565b600060029054906101000a900473ffffffffffffffffffffffffffffffffffffffff1673ffffffffffffffffffffffffffffffffffffffff163373ffffffffffffffffffffffffffffffffffffffff1614610787576040517f08c379a000000000000000000000000000000000000000000000000000000000815260040161077e90611b1d565b60405180910390fd5b8260045410156107cc576040517f08c379a00000000000000000000000000000000000000000000000000000000081526004016107c390611b89565b60405180910390fd5b6000831161080f576040517f08c379a000000000000000000000000000000000000000000000000000000000815260040161080690611c1b565b60405180910390fd5b60016006600082825461082291906113bc565b9250508190555060405180606001604052808481526020016000600281111561084e5761084d6114d3565b5b815260200183838080601f016020809104026020016040519081016040528093929190818152602001838380828437600081840152601f19601f820116905080830192505050505050508152506007600060065481526020019081526020016000206000820151816000015560208201518160010160006101000a81548160ff021916908360028111156108e5576108e46114d3565b5b02179055506040820151816002019080519060200190610906929190611226565b50905050826004600082825461091c9190611412565b92505081905550505050565b600260009054906101000a900473ffffffffffffffffffffffffffffffffffffffff1673ffffffffffffffffffffffffffffffffffffffff163373ffffffffffffffffffffffffffffffffffffffff16146109b8576040517f08c379a00000000000000000000000000000000000000000000000000000000081526004016109af90611c87565b60405180910390fd5b600060076000848152602001908152602001600020600001541415610a12576040517f08c379a0000000000000000000000000000000000000000000000000000000008152600401610a0990611cf3565b60405180910390fd5b60006002811115610a2657610a256114d3565b5b6007600084815260200190815260200160002060010160009054906101000a900460ff166002811115610a5c57610a5b6114d3565b5b14610a9c576040517f08c379a0000000000000000000000000000000000000000000000000000000008152600401610a9390611d5f565b60405180910390fd5b600280811115610aaf57610aae6114d3565b5b816002811115610ac257610ac16114d3565b5b1480610af2575060016002811115610add57610adc6114d3565b5b816002811115610af057610aef6114d3565b5b145b610b31576040517f08c379a0000000000000000000000000000000000000000000000000000000008152600401610b2890611df1565b60405180910390fd5b60016002811115610b4557610b446114d3565b5b816002811115610b5857610b576114d3565b5b1415610bd15760016007600084815260200190815260200160002060010160006101000a81548160ff02191690836002811115610b9857610b976114d3565b5b0217905550600760008381526020019081526020016000206000015460046000828254610bc591906113bc565b92505081905550610cf9565b60026007600084815260200190815260200160002060010160006101000a81548160ff02191690836002811115610c0b57610c0a6114d3565b5b0217905550600080600160009054906101000a900473ffffffffffffffffffffffffffffffffffffffff1673ffffffffffffffffffffffffffffffffffffffff166007600086815260200190815260200160002060000154604051610c6f90611e42565b60006040518083038185875af1925050503d8060008114610cac576040519150601f19603f3d011682016040523d82523d6000602084013e610cb1565b606091505b509150915081610cf6576040517f08c379a0000000000000000000000000000000000000000000000000000000008152600401610ced90611ea3565b60405180910390fd5b50505b5050565b600260009054906101000a900473ffffffffffffffffffffffffffffffffffffffff1681565b60055481565b600060029054906101000a900473ffffffffffffffffffffffffffffffffffffffff1681565b600160009054906101000a900473ffffffffffffffffffffffffffffffffffffffff1681565b600060029054906101000a900473ffffffffffffffffffffffffffffffffffffffff1673ffffffffffffffffffffffffffffffffffffffff163373ffffffffffffffffffffffffffffffffffffffff1614610e05576040517f08c379a0000000000000000000000000000000000000000000000000000000008152600401610dfc90611b1d565b60405180910390fd5b8115610f7957806004541015610e50576040517f08c379a0000000000000000000000000000000000000000000000000000000008152600401610e4790611b89565b60405180910390fd5b7fbf2ed60bd5b5965d685680c01195c9514e4382e28e3a5a2d2d5244bf59411b938142604051610e81929190611ec3565b60405180910390a18060046000828254610e9b9190611412565b92505081905550600080600060029054906101000a900473ffffffffffffffffffffffffffffffffffffffff1673ffffffffffffffffffffffffffffffffffffffff1683604051610eeb90611e42565b60006040518083038185875af1925050503d8060008114610f28576040519150601f19603f3d011682016040523d82523d6000602084013e610f2d565b606091505b509150915081610f72576040517f08c379a0000000000000000000000000000000000000000000000000000000008152600401610f6990611ea3565b60405180910390fd5b5050611133565b600260149054906101000a900460ff1615610fc9576040517f08c379a0000000000000000000000000000000000000000000000000000000008152600401610fc090611f38565b60405180910390fd5b80600554101561100e576040517f08c379a000000000000000000000000000000000000000000000000000000000815260040161100590611b89565b60405180910390fd5b7fbf2ed60bd5b5965d685680c01195c9514e4382e28e3a5a2d2d5244bf59411b93814260405161103f929190611ec3565b60405180910390a180600560008282546110599190611412565b92505081905550600080600060029054906101000a900473ffffffffffffffffffffffffffffffffffffffff1673ffffffffffffffffffffffffffffffffffffffff16836040516110a990611e42565b60006040518083038185875af1925050503d80600081146110e6576040519150601f19603f3d011682016040523d82523d6000602084013e6110eb565b606091505b509150915081611130576040517f08c379a000000000000000000000000000000000000000000000000000000000815260040161112790611ea3565b60405180910390fd5b50505b5050565b60035481565b60065481565b600260149054906101000a900460ff1681565b600260009054906101000a900473ffffffffffffffffffffffffffffffffffffffff1673ffffffffffffffffffffffffffffffffffffffff163373ffffffffffffffffffffffffffffffffffffffff16146111e6576040517f08c379a00000000000000000000000000000000000000000000000000000000081526004016111dd90611c87565b60405180910390fd5b80600260146101000a81548160ff02191690831515021790555050565b6000808273ffffffffffffffffffffffffffffffffffffffff163b119050919050565b828054611232906119a0565b90600052602060002090601f016020900481019282611254576000855561129b565b82601f1061126d57805160ff191683800117855561129b565b8280016001018555821561129b579182015b8281111561129a57825182559160200191906001019061127f565b5b5090506112a891906112ac565b5090565b5b808211156112c55760008160009055506001016112ad565b5090565b6000819050919050565b7f4e487b7100000000000000000000000000000000000000000000000000000000600052601160045260246000fd5b600061130d826112c9565b9150611318836112c9565b9250817fffffffffffffffffffffffffffffffffffffffffffffffffffffffffffffffff0483118215151615611351576113506112d3565b5b828202905092915050565b7f4e487b7100000000000000000000000000000000000000000000000000000000600052601260045260246000fd5b6000611396826112c9565b91506113a1836112c9565b9250826113b1576113b061135c565b5b828204905092915050565b60006113c7826112c9565b91506113d2836112c9565b9250827fffffffffffffffffffffffffffffffffffffffffffffffffffffffffffffffff03821115611407576114066112d3565b5b828201905092915050565b600061141d826112c9565b9150611428836112c9565b92508282101561143b5761143a6112d3565b5b828203905092915050565b61144f816112c9565b82525050565b600060208201905061146a6000830184611446565b92915050565b600080fd5b600080fd5b611483816112c9565b811461148e57600080fd5b50565b6000813590506114a08161147a565b92915050565b6000602082840312156114bc576114bb611470565b5b60006114ca84828501611491565b91505092915050565b7f4e487b7100000000000000000000000000000000000000000000000000000000600052602160045260246000fd5b60038110611513576115126114d3565b5b50565b600081905061152482611502565b919050565b600061153482611516565b9050919050565b61154481611529565b82525050565b600081519050919050565b600082825260208201905092915050565b60005b83811015611584578082015181840152602081019050611569565b83811115611593576000848401525b50505050565b6000601f19601f8301169050919050565b60006115b58261154a565b6115bf8185611555565b93506115cf818560208601611566565b6115d881611599565b840191505092915050565b60006060820190506115f86000830186611446565b611605602083018561153b565b818103604083015261161781846115aa565b9050949350505050565b600073ffffffffffffffffffffffffffffffffffffffff82169050919050565b600061164c82611621565b9050919050565b61165c81611641565b811461166757600080fd5b50565b60008135905061167981611653565b92915050565b600061168a82611621565b9050919050565b61169a8161167f565b81146116a557600080fd5b50565b6000813590506116b781611691565b92915050565b600080600080608085870312156116d7576116d6611470565b5b60006116e58782880161166a565b94505060206116f687828801611491565b9350506040611707878288016116a8565b92505060606117188782880161166a565b91505092959194509250565b600080fd5b600080fd5b600080fd5b60008083601f84011261174957611748611724565b5b8235905067ffffffffffffffff81111561176657611765611729565b5b6020830191508360018202830111156117825761178161172e565b5b9250929050565b6000806000604084860312156117a2576117a1611470565b5b60006117b086828701611491565b935050602084013567ffffffffffffffff8111156117d1576117d0611475565b5b6117dd86828701611733565b92509250509250925092565b600381106117f657600080fd5b50565b600081359050611808816117e9565b92915050565b6000806040838503121561182557611824611470565b5b600061183385828601611491565b9250506020611844858286016117f9565b9150509250929050565b6118578161167f565b82525050565b6000602082019050611872600083018461184e565b92915050565b61188181611641565b82525050565b600060208201905061189c6000830184611878565b92915050565b60008115159050919050565b6118b7816118a2565b81146118c257600080fd5b50565b6000813590506118d4816118ae565b92915050565b600080604083850312156118f1576118f0611470565b5b60006118ff858286016118c5565b925050602061191085828601611491565b9150509250929050565b611923816118a2565b82525050565b600060208201905061193e600083018461191a565b92915050565b60006020828403121561195a57611959611470565b5b6000611968848285016118c5565b91505092915050565b7f4e487b7100000000000000000000000000000000000000000000000000000000600052602260045260246000fd5b600060028204905060018216806119b857607f821691505b602082108114156119cc576119cb611971565b5b50919050565b7f496e697469616c697a61626c653a20636f6e747261637420697320616c72656160008201527f647920696e697469616c697a6564000000000000000000000000000000000000602082015250565b6000611a2e602e83611555565b9150611a39826119d2565b604082019050919050565b60006020820190508181036000830152611a5d81611a21565b9050919050565b6000819050919050565b600060ff82169050919050565b6000819050919050565b6000611aa0611a9b611a9684611a64565b611a7b565b611a6e565b9050919050565b611ab081611a85565b82525050565b6000602082019050611acb6000830184611aa7565b92915050565b7f596f75206172656e277420746865206f776e6572000000000000000000000000600082015250565b6000611b07601483611555565b9150611b1282611ad1565b602082019050919050565b60006020820190508181036000830152611b3681611afa565b9050919050565b7f496e73756666696369656e742066756e64730000000000000000000000000000600082015250565b6000611b73601283611555565b9150611b7e82611b3d565b602082019050919050565b60006020820190508181036000830152611ba281611b66565b9050919050565b7f42657420616d6f756e74206d7573742062652067726561746572207468616e2060008201527f3000000000000000000000000000000000000000000000000000000000000000602082015250565b6000611c05602183611555565b9150611c1082611ba9565b604082019050919050565b60006020820190508181036000830152611c3481611bf8565b9050919050565b7f596f75206172656e2774207468652073706f6e736f7200000000000000000000600082015250565b6000611c71601683611555565b9150611c7c82611c3b565b602082019050919050565b60006020820190508181036000830152611ca081611c64565b9050919050565b7f42657420646f6573206e6f742065786973740000000000000000000000000000600082015250565b6000611cdd601283611555565b9150611ce882611ca7565b602082019050919050565b60006020820190508181036000830152611d0c81611cd0565b9050919050565b7f4265742068617320616c7265616479206265656e207265766965776564000000600082015250565b6000611d49601d83611555565b9150611d5482611d13565b602082019050919050565b60006020820190508181036000830152611d7881611d3c565b9050919050565b7f426574207374617465206d757374206265206569746865722077696e206f722060008201527f6c6f736500000000000000000000000000000000000000000000000000000000602082015250565b6000611ddb602483611555565b9150611de682611d7f565b604082019050919050565b60006020820190508181036000830152611e0a81611dce565b9050919050565b600081905092915050565b50565b6000611e2c600083611e11565b9150611e3782611e1c565b600082019050919050565b6000611e4d82611e1f565b9150819050919050565b7f4661696c656420746f2073656e64204574686572000000000000000000000000600082015250565b6000611e8d601483611555565b9150611e9882611e57565b602082019050919050565b60006020820190508181036000830152611ebc81611e80565b9050919050565b6000604082019050611ed86000830185611446565b611ee56020830184611446565b9392505050565b7f536176696e6773206973206c6f636b6564210000000000000000000000000000600082015250565b6000611f22601283611555565b9150611f2d82611eec565b602082019050919050565b60006020820190508181036000830152611f5181611f15565b905091905056fea264697066735822122065bfeac21465c143e007a9e68416d47912171be781d88c854dbc2afdf2a5074d64736f6c63430008090033",
  "linkReferences": {},
  "deployedLinkReferences": {}
}