{
  "_format": "hh-sol-artifact-1",
  "contractName": "SmartAccountFactory",
  "sourceName": "contracts/SmartAccountFactory.sol",
  "abi": [
    {
      "inputs": [
        {
          "internalType": "address",
          "name": "accountImpl_",
          "type": "address"
        },
        {
          "internalType": "address payable",
          "name": "charity_",
          "type": "address"
        }
      ],
      "stateMutability": "nonpayable",
      "type": "constructor"
    },
    {
      "anonymous": false,
      "inputs": [
        {
          "indexed": false,
          "internalType": "uint256",
          "name": "accountIndex",
          "type": "uint256"
        },
        {
          "indexed": false,
          "internalType": "address",
          "name": "accountAddress",
          "type": "address"
        }
      ],
      "name": "AccountCreated",
      "type": "event"
    },
    {
      "inputs": [
        {
          "internalType": "address",
          "name": "",
          "type": "address"
        }
      ],
      "name": "accounts",
      "outputs": [
        {
          "internalType": "address",
          "name": "",
          "type": "address"
        }
      ],
      "stateMutability": "view",
      "type": "function"
    },
    {
      "inputs": [
        {
          "internalType": "uint256",
          "name": "savingPercent",
          "type": "uint256"
        },
        {
          "internalType": "address",
          "name": "sponsor",
          "type": "address"
        }
      ],
      "name": "createAccount",
      "outputs": [],
      "stateMutability": "nonpayable",
      "type": "function"
    },
    {
      "inputs": [
        {
          "internalType": "address",
          "name": "user",
          "type": "address"
        }
      ],
      "name": "getAccount",
      "outputs": [
        {
          "internalType": "address",
          "name": "",
          "type": "address"
        }
      ],
      "stateMutability": "view",
      "type": "function"
    },
    {
      "inputs": [
        {
          "internalType": "address",
          "name": "",
          "type": "address"
        },
        {
          "internalType": "uint256",
          "name": "",
          "type": "uint256"
        }
      ],
      "name": "sponsors",
      "outputs": [
        {
          "internalType": "uint256",
          "name": "",
          "type": "uint256"
        }
      ],
      "stateMutability": "view",
      "type": "function"
    }
  ],
  "bytecode": "0x6080604052600080553480156200001557600080fd5b5060405162000e9438038062000e9483398181016040528101906200003b9190620001e7565b600073ffffffffffffffffffffffffffffffffffffffff168273ffffffffffffffffffffffffffffffffffffffff161415620000ae576040517f08c379a0000000000000000000000000000000000000000000000000000000008152600401620000a5906200028f565b60405180910390fd5b81600160006101000a81548173ffffffffffffffffffffffffffffffffffffffff021916908373ffffffffffffffffffffffffffffffffffffffff16021790555080600260006101000a81548173ffffffffffffffffffffffffffffffffffffffff021916908373ffffffffffffffffffffffffffffffffffffffff1602179055505050620002b1565b600080fd5b600073ffffffffffffffffffffffffffffffffffffffff82169050919050565b60006200016a826200013d565b9050919050565b6200017c816200015d565b81146200018857600080fd5b50565b6000815190506200019c8162000171565b92915050565b6000620001af826200013d565b9050919050565b620001c181620001a2565b8114620001cd57600080fd5b50565b600081519050620001e181620001b6565b92915050565b6000806040838503121562000201576200020062000138565b5b600062000211858286016200018b565b92505060206200022485828601620001d0565b9150509250929050565b600082825260208201905092915050565b7f4d75737420626520612076616c69642061646472657373000000000000000000600082015250565b6000620002776017836200022e565b915062000284826200023f565b602082019050919050565b60006020820190508181036000830152620002aa8162000268565b9050919050565b610bd380620002c16000396000f3fe608060405234801561001057600080fd5b506004361061004c5760003560e01c8063114c63b1146100515780635e5c06e21461006d578063ce03d1f31461009d578063fbcbc0f1146100cd575b600080fd5b61006b6004803603810190610066919061070c565b6100fd565b005b6100876004803603810190610082919061074c565b6104cf565b6040516100949190610788565b60405180910390f35b6100b760048036038101906100b291906107a3565b610502565b6040516100c491906107f2565b60405180910390f35b6100e760048036038101906100e2919061074c565b610533565b6040516100f49190610788565b60405180910390f35b600073ffffffffffffffffffffffffffffffffffffffff16600360003373ffffffffffffffffffffffffffffffffffffffff1673ffffffffffffffffffffffffffffffffffffffff16815260200190815260200160002060009054906101000a900473ffffffffffffffffffffffffffffffffffffffff1673ffffffffffffffffffffffffffffffffffffffff16146101cb576040517f08c379a00000000000000000000000000000000000000000000000000000000081526004016101c29061086a565b60405180910390fd5b8073ffffffffffffffffffffffffffffffffffffffff163373ffffffffffffffffffffffffffffffffffffffff16141561023a576040517f08c379a0000000000000000000000000000000000000000000000000000000008152600401610231906108d6565b60405180910390fd5b606482111561027e576040517f08c379a000000000000000000000000000000000000000000000000000000000815260040161027590610968565b60405180910390fd5b600160008082825461029091906109b7565b925050819055506000336000546040516020016102ae929190610a76565b604051602081830303815290604052805190602001209050600061031382600160009054906101000a900473ffffffffffffffffffffffffffffffffffffffff1673ffffffffffffffffffffffffffffffffffffffff1661059c90919063ffffffff16565b90507f487f75407abee1a719a204e683a93f0583efee10816d2651b112f8be571f7d3260005482604051610348929190610aa2565b60405180910390a1600460008473ffffffffffffffffffffffffffffffffffffffff1673ffffffffffffffffffffffffffffffffffffffff168152602001908152602001600020600054908060018154018082558091505060019003906000526020600020016000909190919091505580600360003373ffffffffffffffffffffffffffffffffffffffff1673ffffffffffffffffffffffffffffffffffffffff16815260200190815260200160002060006101000a81548173ffffffffffffffffffffffffffffffffffffffff021916908373ffffffffffffffffffffffffffffffffffffffff1602179055508073ffffffffffffffffffffffffffffffffffffffff1663358394d8338686600260009054906101000a900473ffffffffffffffffffffffffffffffffffffffff166040518563ffffffff1660e01b81526004016104979493929190610aec565b600060405180830381600087803b1580156104b157600080fd5b505af11580156104c5573d6000803e3d6000fd5b5050505050505050565b60036020528060005260406000206000915054906101000a900473ffffffffffffffffffffffffffffffffffffffff1681565b6004602052816000526040600020818154811061051e57600080fd5b90600052602060002001600091509150505481565b6000600360008373ffffffffffffffffffffffffffffffffffffffff1673ffffffffffffffffffffffffffffffffffffffff16815260200190815260200160002060009054906101000a900473ffffffffffffffffffffffffffffffffffffffff169050919050565b60006040517f3d602d80600a3d3981f3363d3d373d3d3d363d7300000000000000000000000081528360601b60148201527f5af43d82803e903d91602b57fd5bf300000000000000000000000000000000006028820152826037826000f5915050600073ffffffffffffffffffffffffffffffffffffffff168173ffffffffffffffffffffffffffffffffffffffff16141561066d576040517f08c379a000000000000000000000000000000000000000000000000000000000815260040161066490610b7d565b60405180910390fd5b92915050565b600080fd5b6000819050919050565b61068b81610678565b811461069657600080fd5b50565b6000813590506106a881610682565b92915050565b600073ffffffffffffffffffffffffffffffffffffffff82169050919050565b60006106d9826106ae565b9050919050565b6106e9816106ce565b81146106f457600080fd5b50565b600081359050610706816106e0565b92915050565b6000806040838503121561072357610722610673565b5b600061073185828601610699565b9250506020610742858286016106f7565b9150509250929050565b60006020828403121561076257610761610673565b5b6000610770848285016106f7565b91505092915050565b610782816106ce565b82525050565b600060208201905061079d6000830184610779565b92915050565b600080604083850312156107ba576107b9610673565b5b60006107c8858286016106f7565b92505060206107d985828601610699565b9150509250929050565b6107ec81610678565b82525050565b600060208201905061080760008301846107e3565b92915050565b600082825260208201905092915050565b7f596f7520616c7265616479206861766520616e206163636f756e740000000000600082015250565b6000610854601b8361080d565b915061085f8261081e565b602082019050919050565b6000602082019050818103600083015261088381610847565b9050919050565b7f596f752063616e206e6f7420626520796f7572206f776e2073706f6e736f7200600082015250565b60006108c0601f8361080d565b91506108cb8261088a565b602082019050919050565b600060208201905081810360008301526108ef816108b3565b9050919050565b7f536176696e672070657263656e74206d7573742062652077697468696e205b3060008201527f2c203130305d0000000000000000000000000000000000000000000000000000602082015250565b600061095260268361080d565b915061095d826108f6565b604082019050919050565b6000602082019050818103600083015261098181610945565b9050919050565b7f4e487b7100000000000000000000000000000000000000000000000000000000600052601160045260246000fd5b60006109c282610678565b91506109cd83610678565b9250827fffffffffffffffffffffffffffffffffffffffffffffffffffffffffffffffff03821115610a0257610a01610988565b5b828201905092915050565b60008160601b9050919050565b6000610a2582610a0d565b9050919050565b6000610a3782610a1a565b9050919050565b610a4f610a4a826106ce565b610a2c565b82525050565b6000819050919050565b610a70610a6b82610678565b610a55565b82525050565b6000610a828285610a3e565b601482019150610a928284610a5f565b6020820191508190509392505050565b6000604082019050610ab760008301856107e3565b610ac46020830184610779565b9392505050565b6000610ad6826106ae565b9050919050565b610ae681610acb565b82525050565b6000608082019050610b016000830187610add565b610b0e60208301866107e3565b610b1b6040830185610779565b610b286060830184610add565b95945050505050565b7f455243313136373a2063726561746532206661696c6564000000000000000000600082015250565b6000610b6760178361080d565b9150610b7282610b31565b602082019050919050565b60006020820190508181036000830152610b9681610b5a565b905091905056fea2646970667358221220cd86cdbbb2fba6fe11a101694b1dfc7fd7c9a9ce24526787443b8eec2f82f49564736f6c63430008090033",
  "linkReferences": {},
  "deployedLinkReferences": {}
}