{
  "_format": "hh-sol-artifact-1",
  "contractName": "SmartAccountFactory",
  "sourceName": "contracts/SmartAccountFactory.sol",
  "abi": [
    {
      "inputs": [
        {
          "internalType": "address",
          "name": "accountImpl_",
          "type": "address"
        },
        {
          "internalType": "address payable",
          "name": "charity_",
          "type": "address"
        }
      ],
      "stateMutability": "nonpayable",
      "type": "constructor"
    },
    {
      "anonymous": false,
      "inputs": [
        {
          "indexed": false,
          "internalType": "uint256",
          "name": "accountIndex",
          "type": "uint256"
        },
        {
          "indexed": false,
          "internalType": "address",
          "name": "accountAddress",
          "type": "address"
        }
      ],
      "name": "AccountCreated",
      "type": "event"
    },
    {
      "inputs": [
        {
          "internalType": "address",
          "name": "",
          "type": "address"
        }
      ],
      "name": "accounts",
      "outputs": [
        {
          "internalType": "address payable",
          "name": "",
          "type": "address"
        }
      ],
      "stateMutability": "view",
      "type": "function"
    },
    {
      "inputs": [
        {
          "internalType": "uint256",
          "name": "savingPercent",
          "type": "uint256"
        },
        {
          "internalType": "address",
          "name": "sponsor",
          "type": "address"
        }
      ],
      "name": "createAccount",
      "outputs": [],
      "stateMutability": "nonpayable",
      "type": "function"
    },
    {
      "inputs": [
        {
          "internalType": "address",
          "name": "",
          "type": "address"
        },
        {
          "internalType": "uint256",
          "name": "",
          "type": "uint256"
        }
      ],
      "name": "sponsors",
      "outputs": [
        {
          "internalType": "uint256",
          "name": "",
          "type": "uint256"
        }
      ],
      "stateMutability": "view",
      "type": "function"
    }
  ],
  "bytecode": "0x6080604052600080553480156200001557600080fd5b5060405162000e4f38038062000e4f83398181016040528101906200003b9190620001e7565b600073ffffffffffffffffffffffffffffffffffffffff168273ffffffffffffffffffffffffffffffffffffffff161415620000ae576040517f08c379a0000000000000000000000000000000000000000000000000000000008152600401620000a5906200028f565b60405180910390fd5b81600160006101000a81548173ffffffffffffffffffffffffffffffffffffffff021916908373ffffffffffffffffffffffffffffffffffffffff16021790555080600260006101000a81548173ffffffffffffffffffffffffffffffffffffffff021916908373ffffffffffffffffffffffffffffffffffffffff1602179055505050620002b1565b600080fd5b600073ffffffffffffffffffffffffffffffffffffffff82169050919050565b60006200016a826200013d565b9050919050565b6200017c816200015d565b81146200018857600080fd5b50565b6000815190506200019c8162000171565b92915050565b6000620001af826200013d565b9050919050565b620001c181620001a2565b8114620001cd57600080fd5b50565b600081519050620001e181620001b6565b92915050565b6000806040838503121562000201576200020062000138565b5b600062000211858286016200018b565b92505060206200022485828601620001d0565b9150509250929050565b600082825260208201905092915050565b7f4d75737420626520612076616c69642061646472657373000000000000000000600082015250565b6000620002776017836200022e565b915062000284826200023f565b602082019050919050565b60006020820190508181036000830152620002aa8162000268565b9050919050565b610b8e80620002c16000396000f3fe608060405234801561001057600080fd5b50600436106100415760003560e01c8063114c63b1146100465780635e5c06e214610062578063ce03d1f314610092575b600080fd5b610060600480360381019061005b9190610668565b6100c2565b005b61007c600480360381019061007791906106a8565b610494565b60405161008991906106f6565b60405180910390f35b6100ac60048036038101906100a79190610711565b6104c7565b6040516100b99190610760565b60405180910390f35b600073ffffffffffffffffffffffffffffffffffffffff16600360003373ffffffffffffffffffffffffffffffffffffffff1673ffffffffffffffffffffffffffffffffffffffff16815260200190815260200160002060009054906101000a900473ffffffffffffffffffffffffffffffffffffffff1673ffffffffffffffffffffffffffffffffffffffff1614610190576040517f08c379a0000000000000000000000000000000000000000000000000000000008152600401610187906107d8565b60405180910390fd5b8073ffffffffffffffffffffffffffffffffffffffff163373ffffffffffffffffffffffffffffffffffffffff1614156101ff576040517f08c379a00000000000000000000000000000000000000000000000000000000081526004016101f690610844565b60405180910390fd5b6064821115610243576040517f08c379a000000000000000000000000000000000000000000000000000000000815260040161023a906108d6565b60405180910390fd5b60016000808282546102559190610925565b925050819055506000336000546040516020016102739291906109e4565b60405160208183030381529060405280519060200120905060006102d882600160009054906101000a900473ffffffffffffffffffffffffffffffffffffffff1673ffffffffffffffffffffffffffffffffffffffff166104f890919063ffffffff16565b90507f487f75407abee1a719a204e683a93f0583efee10816d2651b112f8be571f7d326000548260405161030d929190610a6f565b60405180910390a1600460008473ffffffffffffffffffffffffffffffffffffffff1673ffffffffffffffffffffffffffffffffffffffff168152602001908152602001600020600054908060018154018082558091505060019003906000526020600020016000909190919091505580600360003373ffffffffffffffffffffffffffffffffffffffff1673ffffffffffffffffffffffffffffffffffffffff16815260200190815260200160002060006101000a81548173ffffffffffffffffffffffffffffffffffffffff021916908373ffffffffffffffffffffffffffffffffffffffff1602179055508073ffffffffffffffffffffffffffffffffffffffff1663358394d8338686600260009054906101000a900473ffffffffffffffffffffffffffffffffffffffff166040518563ffffffff1660e01b815260040161045c9493929190610aa7565b600060405180830381600087803b15801561047657600080fd5b505af115801561048a573d6000803e3d6000fd5b5050505050505050565b60036020528060005260406000206000915054906101000a900473ffffffffffffffffffffffffffffffffffffffff1681565b600460205281600052604060002081815481106104e357600080fd5b90600052602060002001600091509150505481565b60006040517f3d602d80600a3d3981f3363d3d373d3d3d363d7300000000000000000000000081528360601b60148201527f5af43d82803e903d91602b57fd5bf300000000000000000000000000000000006028820152826037826000f5915050600073ffffffffffffffffffffffffffffffffffffffff168173ffffffffffffffffffffffffffffffffffffffff1614156105c9576040517f08c379a00000000000000000000000000000000000000000000000000000000081526004016105c090610b38565b60405180910390fd5b92915050565b600080fd5b6000819050919050565b6105e7816105d4565b81146105f257600080fd5b50565b600081359050610604816105de565b92915050565b600073ffffffffffffffffffffffffffffffffffffffff82169050919050565b60006106358261060a565b9050919050565b6106458161062a565b811461065057600080fd5b50565b6000813590506106628161063c565b92915050565b6000806040838503121561067f5761067e6105cf565b5b600061068d858286016105f5565b925050602061069e85828601610653565b9150509250929050565b6000602082840312156106be576106bd6105cf565b5b60006106cc84828501610653565b91505092915050565b60006106e08261060a565b9050919050565b6106f0816106d5565b82525050565b600060208201905061070b60008301846106e7565b92915050565b60008060408385031215610728576107276105cf565b5b600061073685828601610653565b9250506020610747858286016105f5565b9150509250929050565b61075a816105d4565b82525050565b60006020820190506107756000830184610751565b92915050565b600082825260208201905092915050565b7f596f7520616c7265616479206861766520616e206163636f756e740000000000600082015250565b60006107c2601b8361077b565b91506107cd8261078c565b602082019050919050565b600060208201905081810360008301526107f1816107b5565b9050919050565b7f596f752063616e206e6f7420626520796f7572206f776e2073706f6e736f7200600082015250565b600061082e601f8361077b565b9150610839826107f8565b602082019050919050565b6000602082019050818103600083015261085d81610821565b9050919050565b7f536176696e672070657263656e74206d7573742062652077697468696e205b3060008201527f2c203130305d0000000000000000000000000000000000000000000000000000602082015250565b60006108c060268361077b565b91506108cb82610864565b604082019050919050565b600060208201905081810360008301526108ef816108b3565b9050919050565b7f4e487b7100000000000000000000000000000000000000000000000000000000600052601160045260246000fd5b6000610930826105d4565b915061093b836105d4565b9250827fffffffffffffffffffffffffffffffffffffffffffffffffffffffffffffffff038211156109705761096f6108f6565b5b828201905092915050565b60008160601b9050919050565b60006109938261097b565b9050919050565b60006109a582610988565b9050919050565b6109bd6109b88261062a565b61099a565b82525050565b6000819050919050565b6109de6109d9826105d4565b6109c3565b82525050565b60006109f082856109ac565b601482019150610a0082846109cd565b6020820191508190509392505050565b6000819050919050565b6000610a35610a30610a2b8461060a565b610a10565b61060a565b9050919050565b6000610a4782610a1a565b9050919050565b6000610a5982610a3c565b9050919050565b610a6981610a4e565b82525050565b6000604082019050610a846000830185610751565b610a916020830184610a60565b9392505050565b610aa18161062a565b82525050565b6000608082019050610abc60008301876106e7565b610ac96020830186610751565b610ad66040830185610a98565b610ae360608301846106e7565b95945050505050565b7f455243313136373a2063726561746532206661696c6564000000000000000000600082015250565b6000610b2260178361077b565b9150610b2d82610aec565b602082019050919050565b60006020820190508181036000830152610b5181610b15565b905091905056fea264697066735822122010a314e5e5b3d2bfa519ff8a4ea03bed74a4a5bcbd4d8a9983ba2925d357503064736f6c63430008090033",
  "linkReferences": {},
  "deployedLinkReferences": {}
}