{
  "_format": "hh-sol-artifact-1",
  "contractName": "SmartAccountFactory",
  "sourceName": "contracts/SmartAccountFactory.sol",
  "abi": [
    {
      "inputs": [
        {
          "internalType": "address",
          "name": "accountImpl_",
          "type": "address"
        },
        {
          "internalType": "address payable",
          "name": "charity_",
          "type": "address"
        }
      ],
      "stateMutability": "nonpayable",
      "type": "constructor"
    },
    {
      "anonymous": false,
      "inputs": [
        {
          "indexed": false,
          "internalType": "uint256",
          "name": "accountIndex",
          "type": "uint256"
        },
        {
          "indexed": false,
          "internalType": "address",
          "name": "accountAddress",
          "type": "address"
        }
      ],
      "name": "AccountCreated",
      "type": "event"
    },
    {
      "inputs": [
        {
          "internalType": "address",
          "name": "",
          "type": "address"
        }
      ],
      "name": "accounts",
      "outputs": [
        {
          "internalType": "address payable",
          "name": "",
          "type": "address"
        }
      ],
      "stateMutability": "view",
      "type": "function"
    },
    {
      "inputs": [
        {
          "internalType": "uint256",
          "name": "savingPercent",
          "type": "uint256"
        },
        {
          "internalType": "address",
          "name": "sponsor",
          "type": "address"
        }
      ],
      "name": "createAccount",
      "outputs": [],
      "stateMutability": "nonpayable",
      "type": "function"
    }
  ],
  "bytecode": "0x6080604052600080553480156200001557600080fd5b5060405162000d2038038062000d2083398181016040528101906200003b9190620001e7565b600073ffffffffffffffffffffffffffffffffffffffff168273ffffffffffffffffffffffffffffffffffffffff161415620000ae576040517f08c379a0000000000000000000000000000000000000000000000000000000008152600401620000a5906200028f565b60405180910390fd5b81600160006101000a81548173ffffffffffffffffffffffffffffffffffffffff021916908373ffffffffffffffffffffffffffffffffffffffff16021790555080600260006101000a81548173ffffffffffffffffffffffffffffffffffffffff021916908373ffffffffffffffffffffffffffffffffffffffff1602179055505050620002b1565b600080fd5b600073ffffffffffffffffffffffffffffffffffffffff82169050919050565b60006200016a826200013d565b9050919050565b6200017c816200015d565b81146200018857600080fd5b50565b6000815190506200019c8162000171565b92915050565b6000620001af826200013d565b9050919050565b620001c181620001a2565b8114620001cd57600080fd5b50565b600081519050620001e181620001b6565b92915050565b6000806040838503121562000201576200020062000138565b5b600062000211858286016200018b565b92505060206200022485828601620001d0565b9150509250929050565b600082825260208201905092915050565b7f4d75737420626520612076616c69642061646472657373000000000000000000600082015250565b6000620002776017836200022e565b915062000284826200023f565b602082019050919050565b60006020820190508181036000830152620002aa8162000268565b9050919050565b610a5f80620002c16000396000f3fe608060405234801561001057600080fd5b50600436106100365760003560e01c8063114c63b11461003b5780635e5c06e214610057575b600080fd5b61005560048036038101906100509190610594565b610087565b005b610071600480360381019061006c91906105d4565b6103f1565b60405161007e9190610622565b60405180910390f35b600073ffffffffffffffffffffffffffffffffffffffff16600360003373ffffffffffffffffffffffffffffffffffffffff1673ffffffffffffffffffffffffffffffffffffffff16815260200190815260200160002060009054906101000a900473ffffffffffffffffffffffffffffffffffffffff1673ffffffffffffffffffffffffffffffffffffffff1614610155576040517f08c379a000000000000000000000000000000000000000000000000000000000815260040161014c9061069a565b60405180910390fd5b8073ffffffffffffffffffffffffffffffffffffffff163373ffffffffffffffffffffffffffffffffffffffff1614156101c4576040517f08c379a00000000000000000000000000000000000000000000000000000000081526004016101bb90610706565b60405180910390fd5b6064821115610208576040517f08c379a00000000000000000000000000000000000000000000000000000000081526004016101ff90610798565b60405180910390fd5b600160008082825461021a91906107e7565b925050819055506000336000546040516020016102389291906108a6565b604051602081830303815290604052805190602001209050600061029d82600160009054906101000a900473ffffffffffffffffffffffffffffffffffffffff1673ffffffffffffffffffffffffffffffffffffffff1661042490919063ffffffff16565b90507f487f75407abee1a719a204e683a93f0583efee10816d2651b112f8be571f7d32600054826040516102d2929190610940565b60405180910390a180600360003373ffffffffffffffffffffffffffffffffffffffff1673ffffffffffffffffffffffffffffffffffffffff16815260200190815260200160002060006101000a81548173ffffffffffffffffffffffffffffffffffffffff021916908373ffffffffffffffffffffffffffffffffffffffff1602179055508073ffffffffffffffffffffffffffffffffffffffff1663358394d8338686600260009054906101000a900473ffffffffffffffffffffffffffffffffffffffff166040518563ffffffff1660e01b81526004016103b99493929190610978565b600060405180830381600087803b1580156103d357600080fd5b505af11580156103e7573d6000803e3d6000fd5b5050505050505050565b60036020528060005260406000206000915054906101000a900473ffffffffffffffffffffffffffffffffffffffff1681565b60006040517f3d602d80600a3d3981f3363d3d373d3d3d363d7300000000000000000000000081528360601b60148201527f5af43d82803e903d91602b57fd5bf300000000000000000000000000000000006028820152826037826000f5915050600073ffffffffffffffffffffffffffffffffffffffff168173ffffffffffffffffffffffffffffffffffffffff1614156104f5576040517f08c379a00000000000000000000000000000000000000000000000000000000081526004016104ec90610a09565b60405180910390fd5b92915050565b600080fd5b6000819050919050565b61051381610500565b811461051e57600080fd5b50565b6000813590506105308161050a565b92915050565b600073ffffffffffffffffffffffffffffffffffffffff82169050919050565b600061056182610536565b9050919050565b61057181610556565b811461057c57600080fd5b50565b60008135905061058e81610568565b92915050565b600080604083850312156105ab576105aa6104fb565b5b60006105b985828601610521565b92505060206105ca8582860161057f565b9150509250929050565b6000602082840312156105ea576105e96104fb565b5b60006105f88482850161057f565b91505092915050565b600061060c82610536565b9050919050565b61061c81610601565b82525050565b60006020820190506106376000830184610613565b92915050565b600082825260208201905092915050565b7f596f7520616c7265616479206861766520616e206163636f756e740000000000600082015250565b6000610684601b8361063d565b915061068f8261064e565b602082019050919050565b600060208201905081810360008301526106b381610677565b9050919050565b7f596f752063616e206e6f7420626520796f7572206f776e2073706f6e736f7200600082015250565b60006106f0601f8361063d565b91506106fb826106ba565b602082019050919050565b6000602082019050818103600083015261071f816106e3565b9050919050565b7f536176696e672070657263656e74206d7573742062652077697468696e205b3060008201527f2c203130305d0000000000000000000000000000000000000000000000000000602082015250565b600061078260268361063d565b915061078d82610726565b604082019050919050565b600060208201905081810360008301526107b181610775565b9050919050565b7f4e487b7100000000000000000000000000000000000000000000000000000000600052601160045260246000fd5b60006107f282610500565b91506107fd83610500565b9250827fffffffffffffffffffffffffffffffffffffffffffffffffffffffffffffffff03821115610832576108316107b8565b5b828201905092915050565b60008160601b9050919050565b60006108558261083d565b9050919050565b60006108678261084a565b9050919050565b61087f61087a82610556565b61085c565b82525050565b6000819050919050565b6108a061089b82610500565b610885565b82525050565b60006108b2828561086e565b6014820191506108c2828461088f565b6020820191508190509392505050565b6108db81610500565b82525050565b6000819050919050565b60006109066109016108fc84610536565b6108e1565b610536565b9050919050565b6000610918826108eb565b9050919050565b600061092a8261090d565b9050919050565b61093a8161091f565b82525050565b600060408201905061095560008301856108d2565b6109626020830184610931565b9392505050565b61097281610556565b82525050565b600060808201905061098d6000830187610613565b61099a60208301866108d2565b6109a76040830185610969565b6109b46060830184610613565b95945050505050565b7f455243313136373a2063726561746532206661696c6564000000000000000000600082015250565b60006109f360178361063d565b91506109fe826109bd565b602082019050919050565b60006020820190508181036000830152610a22816109e6565b905091905056fea2646970667358221220c47ddde6f35af610ea3ba59198c1e6d44770c3362475b70ade189ec86ce29b1164736f6c63430008090033",
  "linkReferences": {},
  "deployedLinkReferences": {}
}